S0110000786265655F746573742E7372656350
S113000056C000007DC000007BC0000079C0000025
S113001077C0000075C0000073C0000071C000000C
S11300206FC000006DC000006BC0000069C000001C
S1130030ACC0000065C0000063C0000061C00000E7
S11300405FC000005DC0000054C700000C9470083D
S113005057C0000055C0000053C0000051C000004C
S11300604FC000004DC000004BC0000049C000005C
S113007047C0000045C0000043C0000041C000006C
S11300803FC000003DC000003BC0000039C000007C
S113009037C000006501F7017102D502120359034C
S11300A0A4032F04C4046001BA057A088B0911243F
S11300B01FBECFEFD0E1DEBFCDBF11E0A0E0B1E0C5
S11300C0EAE4F3E100E00BBF02C007900D92A83010
S11300D0B107D9F721E0A8E0B1E001C01D92AE3C20
S11300E0B207E1F710E0C7E5D0E004C02197FE01B4
S11300F00E949A09C535D107C9F734D60C94A309CF
S11301007FCFCF93DF93E1ECF0E010829091C600B3
S113011062EC70E0DB019C93C0ECD0E090E4988347
S113012096E09C9345EC50E0DA011C9224EC30E01C
S1130130D9011C92DA011C9290E1D9019C93988117
S11301409260988398819062988390819B7F90833A
S11301509081282F2470922B9083982F9873DB0121
S11301609C939C918370880F892B8C9380818861E8
S1130170808381E0DF91CF910895E0ECF0E09081FD
S113018095FFFDCF8093C60008951F920F920FB67E
S11301900F9211248F939F93AF93BF938091C201C9
S11301A09091C301A091C401B091C5010196A11D14
S11301B0B11D8093C2019093C301A093C401B09375
S11301C0C501BF91AF919F918F910F900FBE0F907A
S11301D01F90189580E0ADEEB0E03EEE20E0982F41
S11301E09295907F9C93E32FF22F1192E83FF105B3
S11301F0E1F78F5F8F3099F70895EDEEF0E02081FD
S113020010828091EF00807C69F081E0ADEEB0E077
S1130210EFEEF0E0982F9295907F9C939081907CE4
S113022029F401C080E02093ED0008958F5F8F30A2
S113023089F72093ED008FEF08950F931F93CF93C9
S1130240DF9300D000D0CDB7DEB7FC0181818C30C4
S113025099F48185803669F480818295807F8093CA
S1130260ED00AFEEB0E08C918F738C931092EE00A2
S11302701082118680E037C58F01BFDF8F3F09F4FC
S11302802DC590E6D80119969C9319978C93829565
S1130290807F8093ED00EEEEF0E01192E83FF105EF
S11302A0E1F7D8011196EC918E2F90E0FC01319783
S11302B0EB30F10508F00EC5E65BFF4F0C949A098C
S11302C0F80186818111F9C30AC4D8011B968C9167
S11302D01B978823E9F114968C911497982F929583
S11302E09695977015968C911597880F880F880F9F
S11302F0890F8093F30013968C911397982F9295FE
S11303009695977014968C911497880F880F880F80
S1130310890F8093F20012968C911297982F9295E0
S11303209695977013968C911397880F880F880F62
S1130330890F8093F10012968C91880F880F880F93
S11303408093F000EFEEF0E080818061808319C03B
S1130350F80182818695869586959381F0E29F9F28
S1130360800D11248093F300D80112968C9182950C
S1130370880F807E8093F200EFEEF0E080818F7E24
S11303808083F8018681882391F080E02AEF30E0B1
S1130390D8011796ED91FC911897E80FF11D908103
S11303A0F90190838F5F16969C91891788F3D80181
S11303B01A968C91882331F0E0EFF0E0808184601C
S11303C0808305C0E0EFF0E080818B7F8083EFEED7
S11303D0F0E09081D80116968C91892B80838081DE
S11303E08F73808380818064808380E07CC4F80183
S11303F08385882381F18481982F929596959770AF
S11304008581880F880F880F890F8093F30083817B
S1130410982F9295969597708481880F880F880FEE
S1130420890F8093F2008281982F92959695977008
S11304308381880F880F880F890F8093F100828150
S1130440880F880F880F8093F000EFEEF0E0808132
S11304508061808317C08281869586958695938175
S1130460B0E29B9F800D11248093F300F8018281F8
S11304708295880F807E8093F200EFEEF0E0808119
S11304808F7E8083D80116968C91882391F080E02A
S11304902AEF30E0D8011796ED91FC911897E80FF8
S11304A0F11D9081F90190838F5F16969C918917B5
S11304B088F3D8011A961C921A97E0EFF0E0808135
S11304C08B7F8083EFEEF0E0908116968C91892BE0
S11304D0808380818F73808380818064808380E0C7
S11304E002C4F8018385882381F18481982F929531
S11304F0969597708581880F880F880F890F809350
S1130500F3008381982F9295969597708481880F34
S1130510880F880F890F8093F2008281982F92951B
S1130520969597708381880F880F880F890F809321
S1130530F1008281880F880F880F8093F000EFEE1E
S1130540F0E080818061808317C0828186958695E2
S113055086959381B0E29B9F800D11248093F300D4
S1130560F80182818295880F807E8093F200EFEEFD
S1130570F0E080818F7E808381E0D8011A968C938D
S11305801A97E0EFF0E0808184608083EFEEF0E082
S1130590908116968C91892B808380818F738083C0
S11305A080818064808380E09EC319821A821B82CA
S11305B01C821092F7008A81982F929596959770D5
S11305C08B81880F880F880F890F8093F6008981AB
S11305D0982F9295969597708A81880F880F880F27
S11305E0890F8093F5008981880F880F880F24EF85
S11305F030E0F9018083EFEEF0E09081D8011696A7
S11306008C91892B8083D9018C918B7F8C938C91D5
S11306108E7F8C9380818F738083808180688083B8
S113062080E061C319821A821B821C821092F70037
S11306308A81982F9295969597708B81880F880F51
S1130640880F890F8093F6008981982F929596954B
S113065097708A81880F880F880F890F8093F5001F
S11306608981880F880F880F44EF50E0FA01808356
S1130670EFEEF0E09081D80116968C911697892BB5
S113068080831A961C92DA018C9184608C9320EFFB
S113069030E0D9018C918B7F8C93DA018C918E7F21
S11306A08C9380818F73808380818068808380E0D5
S11306B01AC319821A821B821C821092F7008A8143
S11306C0982F9295969597708B81880F880F880F35
S11306D0890F8093F6008981982F9295969597704B
S11306E08A81880F880F880F890F8093F50089818C
S11306F0880F880F880F44EF50E0FA018083EFEEF3
S1130700F0E09081D80116968C911697892B8083FE
S113071081E01A968C93DA018C9184608C9320EF9B
S113072030E0D9018C9184608C9380818F7D8083AB
S1130730DA018C918E7F8C9380818F73808380818A
S11307408068808380E0CFC2F8018385882381F1AB
S11307508481982F9295969597708581880F880F3C
S1130760880F890F8093F3008381982F9295969533
S113077097708481880F880F880F890F8093F20007
S11307808281982F9295969597708381880F880F10
S1130790880F890F8093F1008281880F880F880F5A
S11307A08093F000EFEEF0E080818061808317C0D9
S11307B082818695869586959381B0E29B9F800D74
S11307C011248093F300F80182818295880F807E42
S11307D08093F200EFEEF0E080818F7E80838FEFD4
S11307E09FEFDC0189839A83AB83BC838093F700FA
S11307F08A81982F9295969597708B81880F880F90
S1130800880F890F8093F6008981982F9295969589
S113081097708A81880F880F880F890F8093F5005D
S11308208981880F880F880F24EF30E0D9018C93D9
S1130830EFEEF0E09081D80116968C91892B80839D
S1130840D9018C918B7F8C938C9181608C93808166
S11308508F73808380818068808380E044C2F80144
S11308608385882381F18481982F9295969597703A
S11308708581880F880F880F890F8093F300838107
S1130880982F9295969597708481880F880F880F7A
S1130890890F8093F2008281982F92959695977094
S11308A08381880F880F880F890F8093F1008281DC
S11308B0880F880F880F8093F000EFEEF0E08081BE
S11308C08061808317C08281869586958695938101
S11308D0B0E29B9F800D11248093F300F801828184
S11308E08295880F807E8093F200EFEEF0E08081A5
S11308F08F7E80838FEF9FEFDC0189839A83AB83A4
S1130900BC838093F7008A81982F9295969597706F
S11309108B81880F880F880F890F8093F600898157
S1130920982F9295969597708A81880F880F880FD3
S1130930890F8093F5008981880F880F880F44EF11
S113094050E0DA018C93EFEEF0E09081D801169636
S11309508C911697892B80831A961C92DA018C91BC
S113096084608C9320EF30E0D9018C918B7F8C9341
S1130970DA018C9181608C9380818F738083808174
S11309808068808380E0AFC1F8018385882381F18A
S11309908481982F9295969597708581880F880FFA
S11309A0880F890F8093F3008381982F92959695F1
S11309B097708481880F880F880F890F8093F200C5
S11309C08281982F9295969597708381880F880FCE
S11309D0880F890F8093F1008281880F880F880F18
S11309E08093F000EFEEF0E080818061808317C097
S11309F082818695869586959381B0E29B9F800D32
S1130A0011248093F300F80182818295880F807EFF
S1130A108093F200EFEEF0E080818F7E80838FEF91
S1130A209FEFDC0189839A83AB83BC838093F700B7
S1130A308A81982F9295969597708B81880F880F4D
S1130A40880F890F8093F6008981982F9295969547
S1130A5097708A81880F880F880F890F8093F5001B
S1130A608981880F880F880F44EF50E0DA018C9356
S1130A70EFEEF0E09081D80116968C911697892BB1
S1130A80808381E01A968C93DA018C9184608C9334
S1130A9020EF30E0D9018C9184608C9380818F7D2C
S1130AA08083DA018C9181608C9380818F73808341
S1130AB080818068808380E016C180E02AEF30E086
S1130AC0D8011796ED91FC911897E80FF11D9081CC
S1130AD0F90190838F5F16969C91891788F3198288
S1130AE01A821B821C821092F7008A81982F929599
S1130AF0969597708B81880F880F880F890F809344
S1130B00F6008981982F9295969597708A81880F1F
S1130B10880F880F890F8093F5008981880F880FCB
S1130B20880F44EF50E0DA018C93EFEEF0E090810F
S1130B30D80116968C911697892B808381E01A969A
S1130B408C93DA018C9184608C9320EF30E0D9018E
S1130B508C9184608C93808180628083DA018C9193
S1130B608E7F8C9380818F73808380818068808363
S1130B7080E0B9C0F8018385882381F18481982FAE
S1130B809295969597708581880F880F880F890FA5
S1130B908093F3008381982F929596959770848122
S1130BA0880F880F880F890F8093F2008281982F15
S1130BB09295969597708381880F880F880F890F77
S1130BC08093F1008281880F880F880F8093F00052
S1130BD0EFEEF0E080818061808317C0828186958A
S1130BE0869586959381B0E29B9F800D1124809316
S1130BF0F300F80182818295880F807E8093F20051
S1130C00EFEEF0E080818F7E8083D80116968C9180
S1130C10882391F080E02AEF30E0D8011796ED9117
S1130C20FC911897E80FF11D9081F90190838F5F73
S1130C3016969C91891788F38FEF9FEFDC018983C7
S1130C409A83AB83BC838093F7008A81982F929513
S1130C50969597708B81880F880F880F890F8093E2
S1130C60F6008981982F9295969597708A81880FBE
S1130C70880F880F890F8093F5008981880F880F6A
S1130C80880F44EF50E0DA018C93EFEEF0E09081AE
S1130C90D80116968C911697892B808381E01A9639
S1130CA08C93DA018C9184608C9320EF30E0D9012D
S1130CB08C9184608C93808180628083DA018C9132
S1130CC081608C9380818F7380838081806880832E
S1130CD080E009C0F801118680E005C08FE1D801E9
S1130CE019968C938FEF0F900F900F900F90DF91C8
S1130CF0CF911F910F910895CF93DF93BC01809101
S1130D00EF008F7099F090E0CAEFD0E0AFEEB0E062
S1130D102881FB01E90FF11D20839F5F2C91492F4E
S1130D2050E02F7030E04217530794F3DF91CF91D6
S1130D30089581E08093D80082E08093E20084E00B
S1130D408093E30083E18093E40081E00895F1DF80
S1130D50882339F03FDAE8EDF0E080818260808317
S1130D6081E00895CF93DF93CDB7DEB7CC57D10997
S1130D700FB6F894DEBF0FBECDBF0FB6F894A8959A
S1130D8080916000886180936000109260000FBEC3
S1130D90F894E6EBF1E022EA31E03087278388E03B
S1130DA0868394E09183EAEAF1E03087278386839F
S1130DB011E01183138680E790E09383828310927D
S1130DC09F0110929E0140E050E0BA0183E099D95E
S1130DD01093D80080E0BBDF90E09093A101809352
S1130DE0A0011EC081E0B3DF90E09093A101809345
S1130DF0A00180919E0190919F01019690939F0183
S1130E0080939E018A3591055CF098E088E10FB6E5
S1130E10F894A895809360000FBE90936000FFCF74
S1130E208091A0019091A101892BE1F2EBEDF0E01A
S1130E3080818068808380818062808380818F7ECE
S1130E4080838FEF9FEF9093DF008093DE00789490
S1130E506E9ACE010196ACD18CE7FE013196AAE0E0
S1130E60B1E001900D928A95E1F7E6E8F1E0108295
S1130E701182128213828FEF9FEFA0E0B0E084838F
S1130E809583A683B783EEE8F1E010821182128283
S1130E9013821486F0930901E093080188E080939B
S1130EA0BC0186EB91E0C9D98111FBCF2EE831E07A
S1130EB066EB71E048E0FB0182819381A481B581F6
S1130EC0F90180839183A283B383E2EAF1E0A2E98A
S1130ED0B1E0842F01900D928A95E1F7F9018485A0
S1130EE08F5F84878FE39CE90197F1F700C00000CE
S1130EF0E2CF1F920F920FB60F9211240BB60F92EE
S1130F002F933F934F935F936F937F938F939F930D
S1130F10AF93BF93EF93FF93CF93DF93CDB7DEB738
S1130F206397DEBFCDBFF8949EB180E489278EB964
S1130F308091ED0080939C018091E0002091E1007C
S1130F4090E0922B009709F4A8C080FDAAC020E08D
S1130F50969587952F5F80FFFBCF2F3008F09DC0BB
S1130F6020939B012F3F11F478949FC02295207FFA
S1130F702093ED008091EF0084FF37C043EF50E0F1
S1130F80DA018C91EEE8F1E090E0959587959595DE
S1130F90879595958795838322EF30E0D9018C91CD
S1130FA0DA019C91869586958695B0E29B9F800D8B
S1130FB01124828341EF50E0DA018C91D9019C9194
S1130FC0869586958695B0E29B9F800D112481833A
S1130FD08091F000DA019C91869586958695B0E221
S1130FE09B9F800D112480831CC0A3EFB0E08C91E3
S1130FF0EEE8F1E090E09595879595958795959520
S11310008795959587959595879581839091F2001D
S11310108C91929596959770880F880F880F890FF9
S1131020808382E991E068DE4091080150910901D2
S11310302DE066E871E0CE010196C6D0BE016F5F77
S11310407F4F8AE091E000D1EFE3FCE93197F1F7BB
S113105000C00000EEEEF0E0808180939D011082DC
S1131060EFEEF0E0808180618083808188608083FE
S1131070A4EFB0E08C918B7F8C938C918E7F8C93BA
S113108080818F73808380818068808380919C01BC
S11310908093ED001EB8789408C08FEF80939B0175
S11310A063CF10929B0120E061CF63960FB6F89452
S11310B0DEBF0FBECDBFDF91CF91FF91EF91BF9106
S11310C0AF919F918F917F916F915F914F913F91DC
S11310D02F910F900BBE0F900FBE0F901F9018957D
S11310E01F920F920FB60F9211240F900FBE0F9004
S11310F01F901895E6E8F1E01082118212821382A3
S113110014821582168217828AE091E051C00895F4
S1131110FC018681845F0895611104C0DC011A9684
S11311208C910895613019F4FC0181850895623031
S113113021F4DC0118968C910895633019F4FC01B4
S113114087810895643021F4DC011E968C91089502
S1131150653019F4FC0185850895663021F4DC01BD
S11311601C968C910895673019F4FC0183850895C9
S1131170683021F4DC0150968C910895693019F49B
S1131180FC01878508956A3021F4DC0151968C9125
S113119008956B3019F4FC0182890895DC011496DA
S11311A0ED91FC911597E60FF11D3C978081089510
S11311B0FC01128611861486158617821086158204
S11311C00E96918380830895CF93DF93EC0180E1A1
S11311D08A8381E08B835D834C832E8384E091E05A
S11311E0998388831F82188619861A861B861C8613
S11311F01D861E8688E0FB01DE01179601900D9284
S11312008A95E1F78EEF9FEF988B8F87198A1A8A58
S1131210DF91CF910895CF93C62F442381F083E8C3
S1131220860F823020F0862F8D7F813141F48DE747
S11312300E94BD0080E28C270E94BD0003C08C2F59
S11312400E94BD00CF910895CF92DF92FF920F9339
S11312501F93CF93DF936C01EB0140E06EE7DBDF7C
S1131260E881F9810280F381E02DCE010995182FE0
S1131270E881F9810280F381E02DCE010995082FE0
S1131280212F30E02E5F3F4F41E0632FC601C3DFC3
S113129062E0600F41E0C601BEDF41E06A81C60141
S11312A0BADF41E06B81C601B6DFFA808B81F80EAC
S11312B000E010E017C0E881F9810190F081E02D91
S11312C0602FCE01099541E0682FC601A4DFE881B3
S11312D0F9810190F081E02D602FCE010995F80E7F
S11312E00F5F1F4FE881F9810280F381E02DCE0169
S11312F00995282F30E002171307ECF26F2D609543
S113130041E0C60188DFDF91CF911F910F91FF90DB
S1131310DF90CF900895E6ECF1E010821182128202
S113132013828FEF9FEFA0E0B0E084839583A683C0
S1131330B7830895EE0FFF1F0024001C0BBE079017
S10D1340F691E02D0994F894FFCF14
S10B134A000000008C08880873
S9030000FC
